:020000040800F2
:1000000060180020310500080503000807030008F8
:100010000B0300080F030008130300080000000092
:1000200000000000000000000000000017030008AE
:1000300019030008000000001B0300081D0300084E
:100040004B0500084B0500084B0500084B05000850
:100050004B0500084B0500084B0500084B05000840
:100060004B0500084B0500084B0500084B05000830
:100070004B0500084B0500084B0500084B05000820
:100080004B0500084B0500084B0500084B05000810
:100090004B0500084B0500084B0500084B05000800
:1000A0004B0500084B0500084B0500084B050008F0
:1000B0004B0500084B0500084B0500084B050008E0
:1000C0004B0500084B0500084B0500084B050008D0
:1000D0004B0500084B0500084B050008A11500085A
:1000E0004B0500084B0500084B0500084B050008B0
:1000F0004B0500084B0500084B0500084B050008A0
:100100004B0500084B0500084B0500084B0500088F
:100110004B0500084B0500084B0500084B0500087F
:100120004B0500084B0500084B0500084B0500086F
:100130004B0500084B0500084B0500084B0500085F
:100140004B0500084B0500084B050008A91A0008DC
:100150004B0500084B0500084B0500084B0500083F
:100160004B0500084B0500084B0500084B0500082F
:100170004B050008B31A00084B0500084B050008A2
:100180004B0500084B05000800F002F800F061F88C
:100190000AA090E8000C82448344AAF10107DA45E2
:1001A00001D100F056F8AFF2090EBAE80F0013F0D3
:1001B000010F18BFFB1A43F001031847C0480000A5
:1001C000E04800000A444FF0000C10F8013B13F027
:1001D000070408BF10F8014B1D1108BF10F8015BA0
:1001E000641E05D010F8016B641E01F8016BF9D193
:1001F00013F0080F1EBF10F8014BAD1C0C1B09D1EA
:100200006D1E58BF01F801CBFAD505E014F8016B5B
:1002100001F8016B6D1EF9D59142D6D370470000ED
:100220000023002400250026103A28BF78C1FBD8FF
:10023000520728BF30C148BF0B607047632904F0E4
:10024000AA83002070471FB504F012FC1FBD10B533
:1002500010BD04F0DBFB1146FFF7F5FF00F008F8D6
:1002600004F0F9FB03B4FFF7F2FF03BC01F034F92B
:1002700086B018A207CA03AB07C3002002904FF450
:10028000A06000F075F9A82001F0A4F84FF4E13067
:1002900001F030F904F0E6FA11A004F005FB134870
:1002A000134B144A01210090134801F0CAFC10E0DE
:1002B0001248006808B9012000E000200F490860DA
:1002C0000F48006810B100200D490860082001F0B7
:1002D000E3F8EDE748656C6C6F20776F726C640033
:1002E0005374617274200D0A000000008400002025
:1002F00008010020300000207C010020A48242423E
:1003000080000020704700BFFEE700BFFEE700BF8F
:10031000FEE700BFFEE77047704770477047000078
:100320000CB50020019000907648006840F48030C1
:100330007449086000BF7348006800F40030009002
:100340000198401C0190009818B90198B0F5A04F91
:10035000F1D16C48006800F4003010B10120009029
:1003600001E0002000900098012846D16548403007
:10037000006840F08050634940310860624800687E
:1003800040F44040604908605E48083000685D49BC
:10039000083108600846006840F4004008600846DC
:1003A000006840F4A05008605848091F0860081F02
:1003B000006840F08070091F086000BF5148006865
:1003C00000F000700028F9D040F205705049086034
:1003D0004C480830006820F003004A4908310860A2
:1003E0000846006840F00200086000BF4548083039
:1003F000006800F00C000828F8D10CBD10B5454885
:10040000006840F47000434908603E48006840F0CE
:1004100001003C49086000203A4908310860394829
:1004200000683D490840374908603C48091D08609C
:10043000081F006820F48020091F0860002031494F
:100440000C310860FFF76CFF4FF0006031498039D4
:10045000086010BD70B50020002202230024022194
:10046000284D08352D6805F00C0020B1042806D071
:10047000082834D107E02A4D2A4E356033E02A4D52
:10048000284E35602FE01F4D2D1D2D68C5F380547B
:100490001C4D2D1D2D6805F03F0154B1224DB5FBBB
:1004A000F1F5184E361D3668C6F3881605FB06F2C0
:1004B00009E01B4DB5FBF1F5124E361D3668C6F34B
:1004C000881605FB06F20F4D2D1D2D68C5F301455D
:1004D0006D1C6B00B2FBF3F5124E356003E0104D5E
:1004E000104E356000BF00BF064D08352D68C5F3BE
:1004F00003150E4E705D0B4D2D68C540094E3560DD
:1005000070BD0000003802400070004008544007F1
:10051000003C024088ED00E0FFFFF6FE10300024B2
:100520000024F4000000002000127A0004000020E3
:100530000948804709480047FEE7FEE7FEE7FEE777
:10054000FEE7FEE7FEE7FEE7FEE7FEE704480549B3
:10055000054A064B70470000FD03000889010008AA
:100560006012002060180020601400206014002039
:1005700032490143324A1160704770B500210023AF
:100580000F22C4781CB32E4C246804F4E064C4F534
:10059000E064C4F30721C1F10404E3B20A414478E2
:1005A0009C40E1B28478144021430C07210E254C75
:1005B00005786155047804F01F050124AC400578E6
:1005C0006D11AD0005F1E025C5F8004109E00478A2
:1005D00004F01F050124AC401B4D0678761145F848
:1005E000264070BD194A0A400243154B1B1F1A6072
:1005F000704739B1124A121D12680243104B1B1D7D
:100600001A6006E00E4A121D126882430C4B1B1D35
:100610001A607047042808D14FF0E021096941F0C1
:1006200004014FF0E022116107E04FF0E021096979
:1006300021F004014FF0E022116170470000FA053B
:100640000CED00E000E400E080E100E080FFFF1F2F
:1006500010B504469848844208D10121084600F0AC
:10066000A6FB0021012000F0A2FB76E09348844223
:1006700008D10121022000F09AFB0021022000F0A5
:1006800096FB6AE08E48844208D10121042000F0E4
:100690008EFB0021042000F08AFB5EE08948844242
:1006A00008D10121082000F082FB0021082000F081
:1006B0007EFB52E08448844208D10121102000F0E2
:1006C00076FB0021102000F072FB46E07F48844258
:1006D00008D10121202000F06AFB0021202000F039
:1006E00066FB3AE07A48844208D10121402000F0BC
:1006F0005EFB0021402000F05AFB2EE0754884424A
:1007000008D10121802000F052FB0021802000F060
:100710004EFB22E07048844208D10121801500F090
:1007200046FB0021A01500F042FB16E06B48844216
:1007300008D10121401500F03AFB0021601500F0BE
:1007400036FB0AE06648844207D10121001500F01B
:100750002EFB0021201500F02AFB10BDF0B50A4643
:1007600000210023002400BF3DE0012505FA01F32C
:10077000156805EA03049C4234D105684F0003263E
:10078000BE40B543056015794E00B5400668354357
:1007900005601579012D02D01579022D16D18568D5
:1007A0004F000326BE40B543856055794E00B540E5
:1007B000866835438560456801268E40B5434560AF
:1007C000456896798E40B6B235434560C5684F009E
:1007D0000326BE40B543C560D5794E00B540C66816
:1007E0003543C560491C1029BFD3F0BD4FF6FF71DA
:1007F00001600021017141718171C171704708B5BB
:100800004FF480320092009A0A430092009AC2612B
:10081000C161009AC261C2690092C269009208BDBA
:100820000246002013690B400BB1012000E00020BC
:1008300070470146086980B270470246002053693C
:100840000B400BB1012000E00020704701464869D1
:1008500080B2704701837047418370470AB10183BA
:1008600000E0418370474161704742694A404261FC
:100870007047F0B5002300244D07ED0E02FA05F392
:10088000CE1000F1200555F826504E07F70E0F2622
:10089000BE40B543CF1000F1200646F82750CE10D9
:1008A00000F1200555F8265045EA0304CE1000F16A
:1008B000200545F82640F0BD00000240000402403B
:1008C00000080240000C02400010024000140240E8
:1008D00000180240001C0240002002400024024098
:1008E000002802400E49086070470D494860704773
:1008F0000B49886070474AF6AA200949086070478A
:100900004CF6CC4006490860704701460020044A76
:10091000D2680A400AB1012000E0002070470000C0
:1009200000300040F948006840F00100F7490860D5
:100930000020F64908310860F4480068F44908408E
:10094000F2490860F348091D0860F348EF49843113
:100950000860F0481038091D0860EC48006820F471
:100960008020EA4908600020E8490C310860E74926
:100970008C31086070470021E44A921C11701146C6
:100980000870704710B501460022002300204A116C
:10099000012A02D1DD4C236808E0022A03D1DB4C96
:1009A0007034236802E0D94C7434236801F01F02CC
:1009B000012494401C400CB1012000E0002010BD37
:1009C00038B5002000900024002500BF3120FFF73B
:1009D000D9FF05460098401C00900098B0F5A04F44
:1009E00001D0002DF2D03120FFF7CCFF08B1012457
:1009F00000E00024204638BD01460020C34A1068AC
:100A000020F0F80040EAC10010607047C349086058
:100A100070470021BD4A703211701170012802D058
:100A200004280AD104E00121B84A7032117005E0AF
:100A30000521B64A7032117000E000BF00BF704758
:100A4000B7490860704770B5049C41EA82150126D9
:100A5000C6EB530645EA0645054345EA0465AB4E39
:100A6000361D356070BDAD4908667047820142EAA7
:100A70000172A64B84331A607047A8498866704794
:100A800010B5830143EA016343EA02739F4C883443
:100A9000236010BDA14908677047A049C86470472A
:100AA00002460020994B0833186820F0EC6042EAB7
:100AB00001031843954B0833186070470246002025
:100AC000924B0833186820F0784042EA010318433B
:100AD0008E4B083318607047014600208B4A08325D
:100AE000106820F003000843106070478748083002
:100AF000006800F00C00704701460020834A08326D
:100B0000106820F0F0000843106070470146002094
:100B10007E4A0832106820F4E050084310607047A5
:100B200001460020794A0832106820F4604040EA0B
:100B3000C10010607047F0B500210022002402259A
:100B400000260223714F08373F6807F00C0121B1DE
:100B5000042905D0082937D105E0724F076036E037
:100B6000714F076033E0694F3F1D3F68C7F3805600
:100B7000664F3F1D3F6807F03F036EB16A4FB7FBFA
:100B8000F3F7DFF888C10CF1040CDCF800C0CCF3FB
:100B9000881C07FB0CF40CE0624FB7FBF3F7DFF89F
:100BA0006CC10CF1040CDCF800C0CCF3881C07FB12
:100BB0000CF4564F3F1D3F68C7F301477F1C7D0073
:100BC000B4FBF5F7076002E0564F076000BF00BFB7
:100BD0004E4F08373F6807F0F0010909534F7A5C20
:100BE0000768D7404760494F08373F6807F4E0512E
:100BF000890A4E4F7A5C4768D7408760434F083771
:100C00003F6807F46041490B484F7A5C4768D7401A
:100C1000C760F0BD002100F44072B2F5407F0AD1F8
:100C20003A4A0832116821F4F811414A024011434E
:100C3000364A08321160354A70321268C0F30B032D
:100C40001A43324B70331A60704735494439086093
:100C5000704733494039086070473649086070472B
:100C600001460020294A8C32106820F01F004A1EDD
:100C70001043264A8C321060704701460020234AF8
:100C80008C32106820F4F8504A1E40EA02201F4AB5
:100C90008C3210607047014600201C4A8C3210686C
:100CA00020F4401008431060704701460020174AA6
:100CB0008C32106820F440000843106070470146F1
:100CC0000020124A8C32106820F440300843106033
:100CD000704719490860704739B10C4A30321268C0
:100CE00002430A4B30331A6006E0084A3032126879
:100CF0008243064B30331A607047F9B1034A3432ED
:100D000012680243014B34331A601CE00038024081
:100D1000FFFFF6EA103000240030002000004742B8
:100D2000800E47420024F40000127A0014000020D4
:100D3000FFFCFF0F5C014742E01147428F4A1268F7
:100D400082438E4B1A60704739B18C4A121D12686B
:100D500002438A4B1B1D1A6006E0884A121D126866
:100D60008243864B1B1D1A60704739B1834A0C328F
:100D700012680243814B0C331A6006E07F4A0C3242
:100D8000126882437D4B0C331A60704739B17B4A3D
:100D9000103212680243794B10331A6006E0774A2A
:100DA000103212688243754B10331A60704739B1A4
:100DB000724A243A12680243704B243B1A6006E0E0
:100DC0006E4A243A126882436C4B243B1A60704787
:100DD00039B16A4A203A12680243684B203B1A60D4
:100DE00006E0664A203A12688243644B203B1A6050
:100DF000704739B1614A1C3A126802435F4B1C3B91
:100E00001A6006E05D4A1C3A126882435B4B1C3B49
:100E10001A60704739B1594A143A12680243574B65
:100E2000143B1A6006E0554A143A12688243534B49
:100E3000143B1A60704739B1504A103A12680243A5
:100E40004E4B103B1A6006E04C4A103A126882433F
:100E50004A4B103B1A60704739B1484A1C3212683D
:100E60000243464B1C331A6006E0444A1C321268A7
:100E70008243424B1C331A60704739B13F4A2032DB
:100E8000126802433D4B20331A6006E03B4A203291
:100E900012688243394B20331A60704739B1374AA0
:100EA000243212680243354B24331A6006E0334A79
:100EB000243212688243314B24331A60704739B1AF
:100EC0002E4A2C32126802432C4B2C331A6006E057
:100ED0002A4A2C3212688243284B2C331A607047FE
:100EE00039B1264A303212680243244B30331A603B
:100EF00006E0224A303212688243204B30331A60B7
:100F00007047012808D11D493C31096841F00801AA
:100F10001A4A3C32116007E018493C31096821F057
:100F20000801164A3C321160704739B1134A273A1A
:100F300012780243114B273B1A7006E00F4A273AFA
:100F4000127882430D4B273B1A7070470B48403094
:100F5000006840F0807009494031086070470146E0
:100F60000020064A283A12680A400AB1012000E02F
:100F70000020704701492639087070473438024014
:100F800010B50446FA48844208D101211020FFF729
:100F900052FF00211020FFF74EFF57E0F548844232
:100FA00009D101214804FFF735FF00214FF400303B
:100FB000FFF730FF4AE0F048844209D1012188045C
:100FC000FFF728FF00214FF48020FFF723FF3DE0CB
:100FD000EA48844209D10121C804FFF71BFF002120
:100FE0004FF40020FFF716FF30E0E548844209D1B6
:100FF00001210805FFF70EFF00214FF48010FFF7D5
:1010000009FF23E0DF48844208D101212020FFF7B7
:1010100012FF00212020FFF70EFF17E0DA4884427C
:1010200009D101218807FFF7F5FE00214FF080402C
:10103000FFF7F0FE0AE0D548844207D101214005C0
:10104000FFF7E8FE00216005FFF7E4FE10BD2DE983
:10105000FF4705460E460024A14600BFA046B089C2
:1010600000B100BF2C8A24F44054F08804432C8241
:10107000AC8941F20C608443B0883189084371899E
:1010800008430443AC81AC8A24F44074B08904431F
:10109000AC826846FFF74FFDB548854202D0B9489B
:1010A000854202D1DDF80C9001E0DDF80890A889B6
:1010B00000F4004040B109EBC90000EB09103168B1
:1010C0004900B0FBF1F707E009EBC90000EB09109C
:1010D00031688900B0FBF1F76420B7FBF0F0040140
:1010E0002009642101FB1078A88900F4004040B178
:1010F000322000EBC800B0FBF1F000F00700044321
:1011000008E0322000EB08106421B0FBF1F000F0A1
:101110000F0004432C81BDE8FF874FF41651016096
:1011200000218180C18001810C21418100218181C8
:10113000704710B502460020108A20F470600B88BA
:101140004C8823438C882343CC8823431843108244
:1011500010BD0021018041808180C180704721B194
:10116000828942F40052828104E082894DF6FF7345
:101170001A4082817047028B02F47F420283028B05
:101180000A430283704721B1828942F4004282817E
:1011900003E08289C2F30E028281704721B1828A04
:1011A00042F40062828204E0828A4FF2FF731A40A6
:1011B00082827047C1F308028280704701468888A6
:1011C000C0F308007047028A4FF6F0731A4002829B
:1011D000028A0A430282704721B1828942F00202E8
:1011E000828104E082894FF6FD731A408281704744
:1011F00082894FF2FF731A40828182890A43828179
:101200007047028A4FF6DF731A400282028A0A434D
:101210000282704721B1028A42F48042028204E0D5
:10122000028A4BF6FF731A4002827047818941F0AF
:1012300001018181704721B1828A42F008028282D5
:1012400004E0828A4FF6F7731A4082827047028B5D
:10125000D2B20283028B42EA01220283704721B19B
:10126000828A42F02002828204E0828A4FF6DF7393
:101270001A408282704721B1828A42F01002828233
:1012800004E0828A4FF6EF731A4082827047828AA6
:101290004FF6FB731A408282828A0A438282704729
:1012A00021B1828A42F00202828204E0828A4FF6F1
:1012B000FD731A40828270471AB1838A0B4383827E
:1012C00002E0838A8B4383827047F0B50346002493
:1012D00000260025002040F66A17B94200D100BF61
:1012E0001846C1F3421401F01F06012707FA06F55C
:1012F000012C01D10C3004E0022C01D1103000E0AF
:1013000014301AB107682F43076002E00768AF4343
:101310000760F0BD02460020B1F5007F00D100BF9C
:1013200013880B400BB1012000E00020704701F44E
:101330000072B2F5007F00D100BFCA43028070473F
:1013400070B50246002400230025002040F66A16EE
:10135000B14200D100BFC1F3421501F01F030126C5
:1013600006FA03F3012D13D19689334017E00000EC
:10137000001001400044004000480040004C004084
:10138000005000400014014000780040007C004004
:10139000022D02D1168A334001E0968A33400C12A6
:1013A000012606FA04F41688344013B10CB101206A
:1013B00000E0002070BD10B50022002340F66A1442
:1013C000A14200D100BF0A1201249440A3B2DC4321
:1013D000048010BD10B504466FF00400FFF71AF941
:1013E000E11704EB5171C1F3C701394A117010467E
:1013F000007800EB4001C1EBC0104FF6FF7101EA2D
:10140000C0003449088010BD0146314A12784A4371
:101410004FF0E0235A6100229A611A46126942F0A5
:1014200001021A6100BF4FF0E022106900F00102D2
:101430001AB100F48032002AF5D04FF0E022126990
:1014400022F001024FF0E0231A6100229A617047F6
:101450000146204A12884A434FF0E0235A61002295
:101460009A611A46126942F001021A6100BF4FF0F8
:10147000E022106900F001021AB100F48032002A63
:10148000F5D04FF0E022126922F001024FF0E02384
:101490001A6100229A61704770B504464FF40770D4
:1014A00094FBF0F0C6B24FF4077094FBF0F100FB30
:1014B000114085B205E04FF40770FFF7C9FF701EB9
:1014C000C6B2002EF7D115B12846FFF7C1FF70BD97
:1014D000240000202600002000BF704700BFB34A50
:1014E000128802F04002002AF9D0C2B2AF4B1B1D95
:1014F0001A80704710B588B0044601210220FFF71A
:10150000EBFB01218804FFF730FC07220B21A848E0
:10151000FFF7AFF907220A21A548FFF7AAF94FF410
:101520004060069002208DF81C008DF81D00002000
:101530008DF81E0001208DF81F0006A99C48FFF7BA
:101540000DF902940020ADF80C00ADF80E00ADF8D6
:101550001000ADF814000C20ADF8120002A9934859
:10156000FFF775FD01219148FFF7F9FD40218F48F4
:10157000FFF7DDFE012240F225518C48FFF7A5FE62
:1015800027208DF8040003208DF805008DF8060053
:1015900001208DF8070001A8FEF7EFFF08B010BD8D
:1015A00010B540F225518148FFF7CAFE10B37F48BD
:1015B000FFF704FEC4B27F48008800F40040C8B9B9
:1015C0007C48008800F4804060B10A2C03D00020E1
:1015D0007849088020E07748008840F40040754949
:1015E000088019E00D2C06D17248008840F4804034
:1015F0007049088010E06F480088C0F30D006E4904
:101600000C546C480088401C6A49088008460088D1
:10161000C72801DD0020088010BD10B5FFF76BF969
:1016200010BD70B505460C4645F25550FFF75AF906
:101630002846FFF75AF92046FFF75AF9FFF75BF9FA
:10164000FFF75EF970BDF0B503460D46164600275C
:1016500029460A2E03D0002008702846F0BD33B971
:10166000302001F8010B002008702846F6E7002B17
:1016700003DA2D2001F8010B5B42504A0DE0B3FB69
:10168000F2F404B937B104F1300001F8010B04FBA6
:10169000123301270A20B2FBF0F2002AEFD100201A
:1016A00008702846DAE70FB470B586B006460CA875
:1016B000019073E00B9800785C281CD10B98401CBB
:1016C0000B9000786E2809D072280FD10D2130467A
:1016D000FFF770FD0B98401C0B900BE00A21304681
:1016E000FFF768FD0B98401C0B9003E00B98401C23
:1016F0000B9000BF4BE00B980078252840D10B9849
:10170000401C0B900078642818D0732833D10198BE
:1017100010C801900BE021783046FFF74BFD00BF69
:1017200040213046FFF7F6FD0028F9D0641C2078F0
:101730000028F0D10B98401C0B9020E0019820C8A5
:1017400001900A2202A92846FFF77DFF02AC0BE0B8
:1017500021783046FFF72EFD00BF40213046FFF7CD
:10176000D9FD0028F9D0641C20780028F0D10B980E
:10177000401C0B9003E00B98401C0B9000BF06E050
:101780000B9810F8011B0B903046FFF713FD00BFBC
:1017900040213046FFF7BEFD0028F9D00B980078B5
:1017A000002887D106B070BC5DF814FB00480040EB
:1017B000000402402C0000207007002000E1F50525
:1017C0001CB504462CA003F06FF801210846FFF772
:1017D00083FA01218020FFF790FA4FF4C050009067
:1017E00002208DF8040000208DF8060003208DF8FB
:1017F000050000208DF8070069462248FEF7AEFF7D
:101800004FF40040009001208DF8040000208DF876
:10181000070069461B48FEF7A1FF01201A4908602E
:101820000A220B211748FFF724F80A220C21154839
:10183000FFF71FF81CBD38B5044643208DF80000A3
:1018400000208DF8010003208DF8020001208DF8A2
:1018500003006846FEF791FE38BD70477047704739
:1018600010B504462046FFF7CFFD10BD10B5044665
:10187000A0B2FFF711FE10BD53544D333246343041
:10188000370D0A0000000240BC024042024612200E
:1018900008802A487047024604200880284870477C
:1018A00070B505460C462DB92246264926A000F003
:1018B000F0FE04E0224623492CA000F0EAFE214875
:1018C00070BD70B505460C4622461E4930A000F09A
:1018D000E0FE1C4870BD70B505460C462DB9224689
:1018E000184930A000F0D5FE04E02246154931A089
:1018F00000F0CFFE134870BD70B505460C462DB9FB
:10190000224610492FA000F0C4FE04E022460D49F3
:101910002CA000F0BEFE0B4870BD70B505460C460D
:101920002DB9224607492AA000F0B3FE04E0224662
:10193000044927A000F0ADFE024870BD4C00002015
:10194000680000203808002053544D333220566977
:10195000727475616C20436F6D506F727420696E84
:10196000204853206D6F64650000000053544D33D0
:1019700032205669727475616C20436F6D506F72BE
:101980007420696E204653204D6F6465000000008E
:1019900053544D6963726F656C656374726F6E69E1
:1019A000637300003030303030303030303530420A
:1019B00000000000303030303030303030353043CF
:1019C0000000000056435020436F6E6669670000B8
:1019D00056435020496E746572666163650000006D
:1019E00000207047002070470346042B15D007DC09
:1019F0007BB1012B0ED0022B0DD0032B12D10BE0AB
:101A0000202B0BD0212B0AD0222B09D0232B09D13C
:101A100007E008E007E006E005E004E003E002E09C
:101A200001E000E000BF00BF0020704730B5024673
:101A30000B46002111E0505C164C174D2D68605587
:101A400015480068401C144C206020460068B0F522
:101A5000006F01D300202060491C9942EBD3002085
:101A600030BD70B506460C460C48006820440B4952
:101A700008600B482146C26830469047002504E0C4
:101A8000715D08A002F010FF6D1CA542F8D3002084
:101A900070BD0000BA090020F00000208000002086
:101AA0006C0000202563000010B51F4802F067FE9F
:101AB00010BD10B51DA002F0F7FE1B4802F05FFE3E
:101AC00010BD10B51EA002F0EFFE10BD10B504460B
:101AD00014B1012C08D103E01DA002F0E5FE07E0DF
:101AE00024A002F0E1FE03E02BA002F0DDFE00BF27
:101AF00000BF10BD10B531A002F0D6FE10BD10B56C
:101B000035A002F0D1FE10BD10B53AA002F0CCFE17
:101B100010BD10B53CA002F0C7FE10BD10B540A02E
:101B200002F0C2FE10BD00007C0100204F54475F50
:101B300048535F49525148616E646C65720D0A00EA
:101B4000555342445F5553525F496E69740D0A0004
:101B500055534220446576696365204C6962726121
:101B600072792076312E312E3020205B48535D0D66
:101B70000A00000055534220446576696365204C95
:101B80006962726172792076312E312E3020205BAD
:101B900046535D0D0A0000005553422044657669A6
:101BA0006365204C6962726172792076312E312E24
:101BB0003020205B3F3F5D0D0A000000564350205F
:101BC000496E7465726661636520737461727465D1
:101BD000642E0D0A000000004465766963652049A3
:101BE0006E2073757370656E64206D6F64652E0D65
:101BF0000A00000044657669636520526573756D5F
:101C000065640D0A00000000555342204465766962
:101C1000636520436F6E6E65637465642E0D0A0004
:101C20005553422044657669636520446973636F48
:101C30006E6E65637465642E0D0A00000146002017
:101C400070472DE9F04104460F4615461E46DDF863
:101C500018802046FFF7B4FD2046FFF7EFFFC4F8D9
:101C6000E465C4F8E885C4F8EC553946204602F02E
:101C700082F8D4F8E815086880472046FFF7DBFDB6
:101C8000BDE8F0811CB504466946204600F0D3FC4F
:101C90009DF8000000F01F0020B1012807D00228A5
:101CA0000FD109E06946204600F0B2FB11E0694619
:101CB000204600F0E6FB0CE06946204600F007FCF9
:101CC00007E09DF8000000F08001204602F04AF98C
:101CD00000BF00BF00201CBD70B505460E46A6BB68
:101CE00005F55D7440F21110405D03283DD1A168F7
:101CF000E069884217D9A168E069401AE061E87894
:101D0000012803D1D4E902100844E060A368E06927
:101D1000984201D2E06900E0A06882B22846E168FA
:101D200000F045F921E0D5F8E405006948B14FF429
:101D30008970405D032804D1D5F8E405016928467F
:101D40008847284600F042F90FE0FFE7D5F8E405A0
:101D5000806950B14FF48970405D032805D1D5F8F2
:101D6000E4053146826928469047002070BD01464F
:101D70006F480268086942600020704770B50546E8
:101D80000E46002E51D105F58E7440F21110405DC3
:101D900002283DD1A168E069884211D9A168E069B3
:101DA000401AE061E878012803D1D4E90210084420
:101DB000E060A08B82B22846E16800F0D2F827E00C
:101DC000A168206AB0FBF1F201FB120078B9A168AA
:101DD000206A88420BD3D4E90801884207D2002246
:101DE0001146284600F0BDF80020606210E0D5F8EA
:101DF000E405C06848B14FF48970405D032804D100
:101E0000D5F8E405C16828468847284600F0F0F870
:101E10004FF48B70405D012816D12846FFF7A7FFCD
:101E200000214FF48B7041550EE0D5F8E405406970
:101E300050B14FF48970405D032805D1D5F8E40511
:101E40003146426928469047002070BD10B50446CF
:101E5000002340221946204601F0DBFF00234022E8
:101E60008021204601F0D5FF01214FF489700155F2
:101E7000A078D4F8E82551688847002010BD10B537
:101E80000446D4F8E8150869804740F21310015D54
:101E9000401E015503210155002010BD10B5044618
:101EA0004FF48970015D401C01550421401E01550D
:101EB000D4F8E815C8688047002010BD10B5044666
:101EC000D4F8E405C06920B1D4F8E405C16920461E
:101ED0008847002010BD70B504460D46D4F8E405CF
:101EE0002946026820469047D4F8E815886880475C
:101EF000002070BD70B504460D46D4F8E4052946AF
:101F0000426820469047002070BD10B50446D4F8C2
:101F1000E405016A20468847002010BD10B504463C
:101F2000D4F8E405416A20468847002010BD00002F
:101F3000A00000202DE9F04104460E46154600277A
:101F4000C4F83C51C4F83851022140F21110015537
:101F50002B4632460021204601F0DDFF3846BDE821
:101F6000F0812DE9F04106460C46154600272B4628
:101F700022460021304601F0CEFF3846BDE8F08110
:101F80002DE9F04104460E4615460027C4F8945347
:101F9000C4F89053032140F2111001552B463246EC
:101FA0000021204601F08EFF3846BDE8F0812DE982
:101FB000F04106460C46154600272B4622460021D6
:101FC000304601F07FFF3846BDE8F08170B5044629
:101FD0000025042140F21110015500231A4619462C
:101FE000204601F098FF204601F059FD284670BDBB
:101FF00070B504460025052140F21110015500235B
:102000001A461946204601F05DFF204601F047FDC3
:10201000284670BD024601EB810302F55D7000EBBE
:10202000C300008B80B2704770B504460D46802116
:10203000204601F097FF0021204601F093FF204643
:1020400001F02DFD70BD70B504460D464FF489704A
:10205000005D022802D0032812D100E000BF68888A
:1020600001280CD100214FF48C700151D4F8E40503
:1020700029468268204690472046FFF7A7FF04E0E4
:1020800029462046FFF7D0FF00BF00BF70BDF8B55E
:1020900004460D460026688801280DD101214FF421
:1020A0008C700151D4F8E405294682682046904797
:1020B0002046FFF78BFF39E06888022836D128795F
:1020C000A0BB206940680090A8880612062E22D284
:1020D000DFE806F02103090F151B009820F07000BF
:1020E0001030009017E0009820F070002030009031
:1020F00011E0009820F07000303000900BE0009864
:1021000020F070004030009005E0009820F0700052
:102110005030009000BF00BFF748009901600121D6
:102120004FF48B7001552046FFF750FFF8BD70B596
:1021300004460D464FF48970005D022802D0032842
:1021400013D100E000BF0120EC4908604FF48C700F
:10215000005920B10846006840F0020008600222E1
:10216000E6492046FFF7E6FE04E029462046FFF751
:102170005BFF00BF00BF70BD70B504460D46E88828
:10218000012804D029462046FFF74EFF1AE04FF4FD
:102190008970005D022802D003280DD105E00122DC
:1021A000D7492046FFF7C6FE0BE0012204F58871EF
:1021B0002046FFF7BFFE04E029462046FFF734FF24
:1021C00000BF00BF70BD70B504460D46A878CD496C
:1021D000087008460078012804DD29462046FFF7EC
:1021E00023FF55E04FF48970005D022802D00328D8
:1021F00048D117E0C348007880B1C248007884F81D
:10220000100103214FF489700155BE480178204622
:10221000FFF761FE2046FFF7D9FE02E02046FFF7F8
:10222000D5FE34E0B748007880B902214FF48970B8
:102230000155B448007884F81001B248017820466E
:10224000FFF758FE2046FFF7C1FE1AE094F8100190
:10225000AC490978884211D094F810112046FFF754
:1022600049FEA848007884F81001A6480178204665
:10227000FFF731FE2046FFF7A9FE02E02046FFF7F8
:10228000A5FE04E029462046FFF7CEFE00BF00BFB2
:1022900070BD70B504460D46A88818BBE88808BB19
:1022A000A87800F07F064FF48970005D032804D100
:1022B00029462046FFF7B8FE18E04FF48A7006550D
:1022C0003146204601F0A8FE2046FFF77FFE26B1EA
:1022D00002214FF48970015508E001214FF4897003
:1022E000015503E029462046FFF79EFE70BDF8B574
:1022F00004460E467088001208286CD2DFE800F011
:102300006B0416226B6B6166A078D4F8EC150A6832
:10231000694690470546F088402804D04FF48970FC
:10232000005D012801D10820009059E0A078D4F880
:10233000E4158A6A69469047054602216970C4F827
:10234000F0554DE0B078062834D2DFE800F0030BFA
:10235000131B232BA078D4F8EC154A6869469047E4
:1023600005462CE0A078D4F8EC158A6869469047B9
:10237000054624E0A078D4F8EC15CA686946904771
:1023800005461CE0A078D4F8EC150A696946904728
:10239000054614E0A078D4F8EC154A6969469047E0
:1023A00005460CE0A078D4F8EC158A696946904798
:1023B000054604E031462046FFF736FEF8BD00BF73
:1023C0000EE031462046FFF72FFEF7E73146204664
:1023D000FFF72AFEF2E731462046FFF725FEEDE73C
:1023E00000BFBDF8000088B1F08878B1F088BDF872
:1023F0000010884202DDBDF8000000E0F088009087
:10240000BDF8002029462046FFF794FD00BFD5E720
:1024100070B505460C46002660780A2829D2DFE808
:1024200000F01923281E280A0528140F21462846E3
:10243000FFF75DFF22E021462846FFF72AFF1DE057
:1024400021462846FFF7BFFE18E021462846FFF741
:1024500093FE13E021462846FFF769FE0EE0214671
:102460002846FFF714FE09E021462846FFF7EBFD5A
:1024700004E021462846FFF7D7FD00BF00BF3046E5
:1024800070BD70B504460D4600264FF48970005D9E
:10249000032814D1287901280CDCD4F8E405294656
:1024A000826820469047E88840B93EB92046FFF749
:1024B0008DFD03E029462046FFF7B6FD04E02946DE
:1024C0002046FFF7B1FD00BF00BF304670BD2DE9CB
:1024D000F04105460E4600273479707800285FD019
:1024E000012833D003287DD14FF48970405D022844
:1024F0000AD0032823D10FE0A0000020DC00002038
:10250000D8000020E00000202CB1802C03D0214610
:10251000284601F027FD17E0708830B92CB1802CD7
:1025200003D02146284601F01DFDD5F8E4053146CB
:102530008268284690472846FFF748FD04E0314668
:102540002846FFF771FD00BF00BF70E04FF48970AF
:10255000405D022802D003281BD107E02CB1802C5B
:1025600003D02146284601F0FDFC17E0708878B9B9
:102570005CB1802C09D02146284601F017FDD5F822
:10258000E40531468268284690472846FFF71EFD3D
:1025900004E031462846FFF747FD00BF00BF46E094
:1025A0004FF48970405D022802D0032837D107E03C
:1025B0002CB1802C03D02146284601F0D3FC33E017
:1025C00004F08000802812D104F07F0000EB80012D
:1025D00005F58E7000EBC100807820B101204149E3
:1025E000086016E022E000203E49086011E004F097
:1025F000800070B904EB840105F55D7000EBC1004B
:10260000807818B101203749086002E00020354980
:102610000860022233492846FFF78CFC04E031466B
:102620002846FFF701FD00BF00BF00E000BF00BF6C
:102630003846BDE8F08190F8CC250A7090F8CD2599
:102640004A7090F8CE3590F8CF2503EB02224A80ED
:1026500090F8D03590F8D12503EB02228A8090F8CB
:10266000D23590F8D32503EB0222CA80CB884FF4F1
:10267000A0721350012340F2111213547047014607
:10268000002002E0421CD0B2491C0A78002AF9D18D
:1026900070472DE9F04104460D4617460026FCB16F
:1026A0002046FFF7ECFF022101EB400038803A782A
:1026B0003046711CCEB22A5403223046711CCEB271
:1026C0002A540AE014F8012B3046711CCEB22A5469
:1026D00000223046711CCEB22A5420780028F1D155
:1026E000BDE8F081D400002070B505460E460223F7
:1026F00040228121284601F08CFB02234022012147
:10270000284601F086FB032308228221284601F097
:1027100080FBF84C0220207100206071F6490868A7
:1027200080474023F54A0121284601F0CBFB0020D9
:1027300070BD70B504460D468121204601F09DFB19
:102740000121204601F099FB8221204601F095FBF2
:10275000E94948688047002070BD2DE9F0410546F1
:102760000C463A26E64F207800F0600070B320282F
:1027700026D1E088D8B1207800F0800058B1E288F6
:102780006078DD498B68DF499847E288DD49284653
:10279000FFF7D0FB11E06078DB490860E088DB4997
:1027A0000860E288D7492846FFF7EAFB05E0607831
:1027B000D14900228B68114698470020BDE8F0817E
:1027C00021462846FFF730FC0220F7E7607806280C
:1027D00004D00A2816D00B2826D119E060882121C0
:1027E000B1EB202F08D1C64F0937E0883A2801DD28
:1027F0003A2000E0E0880646324639462846FFF790
:1028000099FB11E00122C2492846FFF793FB0BE038
:10281000A078012803DAA078BD49086003E02146CA
:102820002846FFF701FC00BF00BF0020C6E710B537
:102830000446B5480068FF280AD0AF488368B3480B
:10284000B0490268B04800689847FF20AE49086068
:10285000002010BD2DE9F04106460F46AD48007836
:10286000012805D1AC48006818B90020A9490870B2
:102870000CE1AA480068AA490968884210D9A7480B
:102880000068C0F50060A449086008460068A449D3
:1028900009680844A04908600120A249087009E0BD
:1028A0009F4800689D490968401A9B4908600020BC
:1028B0009C49087098480068402869D99948007870
:1028C00000284DD09548006800F14005B5F5006F2F
:1028D0002ED9002007E0914909680144924A515CD1
:1028E000924A1154401C8D490968C1F5006181422A
:1028F000F1D8002009E08C49095C884A1268C2F5C9
:1029000000620244894B9954401C84490968A1F52E
:10291000F8618142EFD8402480480068A0F5F86053
:102920007E4908607C48006840387B490860A7E021
:10293000002007E07949096801447B4A515C7B4AE1
:102940001154401C4028F5DB402474480068403096
:10295000724908607048006840386F4908608FE02D
:10296000002007E06D49096801446F4A515C6F4AD5
:102970001154401C4028F5DB402468480068403072
:10298000664908606448006840386349086077E039
:1029900064480078002858D0604800685E4909689B
:1029A0004518B5F5006F34D9002007E05B49096888
:1029B00001445D4A515C5D4A1154401C5749096805
:1029C000C1F500618142F1D8002009E05649095C57
:1029D000524A1268C2F500620244544B9954401C9A
:1029E0004E4909684C4A12681144A1F500618142C0
:1029F000ECD84948008884B24848006846490968CC
:102A00000844A0F50060454908600020424908607C
:102A100036E0002007E0414909680144424A515C20
:102A2000424A1154401C3C4909688842F3D33A4851
:102A3000008884B239480068374909680844374932
:102A400008600020344908601AE0002007E033499C
:102A500009680144344A515C344A1154401C2E49DF
:102A600009688842F3D32C48008884B22B48006858
:102A70002949096808442949086000202649086056
:102A800023462A4A8121304601F045FA0020BDE85C
:102A9000F08170B504460D4605EB850104F55D70C7
:102AA00000EBC100008B86B213483146026913481F
:102AB00090474023114A0121204601F003FA0020EB
:102AC00070BD70B5064613480078012872D01348CF
:102AD0000068B0F5006F02D10020104908600F486F
:102AE00000680F490968884222D10020094908700E
:102AF00070BD00004C0000206C0000207A0900200E
:102B00003D010020E8000020000100200401002019
:102B1000E4000020FC000020F8000020F400002069
:102B2000F000002077010020BA090020BA1100202F
:102B30009348006893490968884210D99048006812
:102B4000C0F5006090490860084600688D49096832
:102B500008448D49086001208C49087009E08948C3
:102B6000006887490968401A87490860002087493A
:102B700008708548006840286AD984480078002891
:102B80004ED07F48006800F14005B5F5006F2FD9A1
:102B9000002007E07A49096801447D4A515C7D4A7A
:102BA0001154401C76490968C1F500618142F1D891
:102BB00000200AE0CAE07649095C714A1268C2F551
:102BC00000620244734B9954401C6D490968A1F599
:102BD000F8618142EFD8402469480068A0F5F860A8
:102BE0006749086068480068403867490860A7E09E
:102BF000002007E0624909680144654A515C654A62
:102C00001154401C4028F5DB40245D4800684030EA
:102C10005B4908605C48006840385B4908608FE0A9
:102C2000002007E0564909680144594A515C594A55
:102C30001154401C4028F5DB4024514800684030C6
:102C40004F4908605048006840384F49086077E0B5
:102C50004E480078002858D0494800684A49096819
:102C60004518B5F5006F34D9002007E044490968DC
:102C70000144474A515C474A1154401C4049096885
:102C8000C1F500618142F1D8002009E04049095CAA
:102C90003B4A1268C2F5006202443E4B9954401C04
:102CA00037490968384A12681144A1F50061814228
:102CB000ECD83548008884B2314800683249096848
:102CC0000844A0F500602E49086000202E490860E5
:102CD00036E0002007E02A49096801442C4A515C8B
:102CE0002C4A1154401C284909688842F3D32648CD
:102CF000008884B2224800682349096808442049B2
:102D000008600020204908601AE0002007E01C4904
:102D1000096801441E4A515C1E4A1154401C1A495C
:102D200009688842F3D31848008884B214480068C0
:102D300015490968084412490860002012490860D2
:102D40002346144A8121304601F0E5F800BF70BDEA
:102D500010B50446104801680068401C0E4A106017
:102D6000052905D10020114608602046FFF7A9FE7D
:102D7000002010BD0246432008800848704700002C
:102D8000F4000020F0000020F8000020770100206F
:102D9000BA090020BA110020780100203401002077
:102DA00008B500210091491EC26851606FF0804152
:102DB000C2685161009921F0004101F10041009188
:102DC000009921F4006101F5006100910099C26849
:102DD000916108BDF8B5044600260025002000904A
:102DE00000BF0320FEF73CFDE06800690090681C0E
:102DF0000546F749884201D90020F8BD0098C00F68
:102E00000028EED00025009820F00100401C009022
:102E10000098E168086100BFE06800690090681CE4
:102E20000546EB49884200D904E0009800F0010013
:102E30000028F1D100BF0320FEF712FD3046DCE789
:102E40002DE9F04104460026E078B0B900270020C3
:102E5000DD1C4FEAE57805EB98784FEAA80704F106
:102E6000D00555F822C000BF04E00D68CCF8005032
:102E7000401C091DB842F8D300BF3046BDE8F081C0
:102E8000F0B503460024D01CC71700EB9777BD10A0
:102E9000D3F8D06000BF03E030680860641C091DEF
:102EA000AC42F9D30846F0BD70B502460C4600238B
:102EB00000200025D5700125957040259580012CB6
:102EC0000CD14FF0A0430125D572082515700425BB
:102ED00055709D15D580022515720AE04CB9BD4B81
:102EE0000025D5720C251570062555704FF4A06588
:102EF000D580D36003F500651561002110E003F56E
:102F0000106505EB411602F1180545F8216003F53F
:102F1000306505EB411602F1540545F82160491C66
:102F200055788D42EBD803F5806555614035C2F880
:102F3000CC50002108E003F5A06505EB411602F135
:102F4000900545F82160491C15788D42F3D8002181
:102F500008E003F5805505EB013602F1D00545F890
:102F60002160491C15788D42F3D803F56065C2F8DD
:102F70000C5170BD3EB50446002500200290019022
:102F80000090207A01283DD1E068806B0190019883
:102F900020F480300190607A28B1019820F48010EC
:102FA00000F5801001900198E1688863002002908C
:102FB000E068C0680290029820F0400002900298F9
:102FC00020F480000290029820F4003002900298D1
:102FD00020F4002002900298E168C8602046FFF7C4
:102FE000F9FEE078012843D1009820F01E000A3055
:102FF0000090009820F02000203000900098E168B8
:10300000886035E0E068C0680290029820F04000D7
:10301000403002900298E168C8602046FFF7DAFE6F
:1030200000200190019820F4803000F5803001905C
:10303000019820F4802000F580200190019820F470
:10304000002000F500200190019820F4001000F508
:1030500000100190607A28B1019820F4801000F5EA
:10306000801001900198E16888631420FEF7FEFB50
:10307000E07801280FD1E06880680090009820F087
:103080001E000A300090009820F0200020300090B0
:103090000098E168886028463EBD08B501460020DA
:1030A00000220092009A22F00102521C0092CA688B
:1030B0009268009B1A43CB689A6008BD08B5014628
:1030C000002000220092009A22F00102521C00927D
:1030D000CA689268009B9A43CB689A6008BDF8B5AD
:1030E00004460D460026002700200090009820F09E
:1030F000200020300090009865F38A10009000981E
:10310000E168086100BFE06800690090781C07462C
:103110002F49884200D904E00098C0F340100028ED
:10312000F1D100BF0320FEF79BFB3046F8BDF8B598
:1031300004460025002600200090009820F0100092
:10314000103000900098E168086100BFE0680069F5
:103150000090701C06461E49884200D904E0009881
:10316000C0F300100028F1D100BF0320FEF778FB68
:103170002846F8BDF8B504460D460026E068C0684C
:103180000090009820F000500090009820F08040BF
:103190000090012D06D1009820F0005000F1005061
:1031A000009006E02DB9009820F0804000F18040AA
:1031B00000900098E168C8603220FEF757FB304667
:1031C000F8BD0146C868406900F001007047000082
:1031D000400D03000000044000B502461046FFF712
:1031E000F0FF012801D0012000BD0020FCE700B560
:1031F00002461046FFF7E5FF012800D100BD002080
:10320000FCE701460020CA685069CA68926910400C
:1032100070470146C8684068704708B5026912687F
:103220000092009A61F301020092009B0269136010
:1032300008BD38B50446002500200090E16888618B
:103240006FF08040E16848612046FFF7A9FDE07813
:1032500020B9009820F0100010300090009820F461
:10326000006000F500600090009820F4805000F5A8
:1032700080500090009820F4005000F5005000901D
:10328000009820F4802000F580200090009820F421
:10329000002000F500200090009820F00800083081
:1032A0000090009820F4801000F5801000900098A5
:1032B00020F4001000F500100090E068806900998B
:1032C00088430843E1688861284638BD70B588B0F6
:1032D0000446002600200790069005900490039075
:1032E0000021D4F80C01016020690068069006985E
:1032F00020F4C0500690069920690160E07A012808
:103300003DD103212046FFF788FF8020E168486215
:10331000059880B200F58000059005986FF30F00C6
:10332000803005900598E1688862059800EB1041AF
:10333000049861F30F000490049880B200F5000037
:1033400004900498E168C1F80401049800EB10416E
:1033500061F30F000490049880B204900499E0682F
:10336000C0F80811049800EB104161F30F000490BD
:10337000049880B204900499E068C0F80C11102100
:103380002046FFF7ACFE2046FFF7D1FE0021206962
:10339000016120694161491E206981610021206924
:1033A000C16100252CE004F1180050F825000068E8
:1033B00007900798C00F70B100200790079820F081
:1033C000804000F180400790079820F0006000F1F5
:1033D0000060079001E00020079004F1180050F809
:1033E000250007990160002104F1180050F825001C
:1033F0000161FF2104F1180050F8250081606D1C67
:103400006078A842CFD800252CE004F1540050F891
:103410002500006801900198C00F70B10020019054
:10342000019820F0804000F180400190019820F048
:10343000006000F10060019001E00020019004F1C3
:10344000540050F8250001990160002104F1540056
:1034500050F825000161FF2104F1540050F82500C7
:1034600081606D1C6078A842CFD80020039003983B
:1034700020F4807000F58070039020690069039942
:103480008843084321690861E07801281DD10020A4
:103490000290029820F00100401C0290029820F057
:1034A0000200801C02904021029861F38A00029081
:1034B000029820F4803000F580300290029861F389
:1034C000594002900299206901632046FFF7B1FE3E
:1034D000304608B070BD08B5014600200A69926800
:1034E0000092009AC2F3410232B1012A06D0022AA8
:1034F00007D0032A07D102E0032004E000BF022026
:1035000001E0012000BF00BF08BD0EB5014600204C
:10351000002200920A69926802928A6912680192F6
:10352000029AC2F3410232B1012A05D0022A09D01F
:10353000032A0DD101E000BF00BF019A6FF30A0218
:10354000019205E0019A6FF30A02D21C019200BFBA
:1035500000BF019B8A691360009A22F4807202F511
:10356000807200920A695268009B9A431A430B6961
:103570005A600EBD3CB50246002000240194009420
:103580004C78012C0CD10D7802F1180454F8253038
:103590000D780124AC40009D64F30F0500950BE00D
:1035A0000D7802F1540454F825300D780124AC4014
:1035B000009D64F31F4500951C680194019CC4F3B1
:1035C000C034E4B90D89019C65F30A040194CD78F7
:1035D000019C65F3934401948D79019C65F39954A2
:1035E0000194019C24F0805404F180540194019CC6
:1035F00024F4004404F500440194019C1C60146907
:10360000E469009D2C431569EC613CBD3CB5024664
:1036100000200024019400944C78012C0CD10D78EA
:1036200002F1180454F825300D780124AC40009DB7
:1036300064F30F0500950BE00D7802F1540454F883
:1036400025300D780124AC40009D64F31F450095A2
:10365000019C24F400440194019C1C601469E469F9
:10366000009DAC431569EC613CBDFEB505460C46BA
:1036700000260027002002900190607801287DD16B
:10368000217805F1180050F8210000680290217897
:1036900005F1180050F8210000690190606948B9EF
:1036A00001986FF3120001900121019861F3DC4051
:1036B000019017E06169019861F31200019060695F
:1036C000401EA1680844B0FBF1F1019861F3DC40B1
:1036D0000190E078012805D1019820F0C04000F168
:1036E00000500190227805F1180050F8220001994D
:1036F0000161E878012807D1227805F1180050F817
:103700002200216941610DE0E07801280AD060695A
:1037100040B12178012000FA01F72869406B384355
:1037200029694863E078012813D1286980680090EE
:103730000098C0F3002030B9029820F0005000F14A
:103740000050029005E0029820F0805000F1805077
:103750000290029820F0806000F180600290029850
:1037600020F0004000F100400290227805F118009E
:1037700050F8220002990160E07800E009E0012899
:103780006CD1A08A83B222782846E168FFF758FB03
:1037900064E0217805F1540050F82100006802909F
:1037A000217805F1540050F821000069019060690A
:1037B00050B9A168019861F31200019001210198AC
:1037C00061F3DC40019013E0A068401E6169084489
:1037D000A168B0FBF1F1019861F3DC400190019820
:1037E000C0F3C940A1684843019960F312010191F7
:1037F000227805F1540050F8220001990161E8781F
:10380000012806D1227805F1540050F822002169E0
:103810004161E07801280ED1607930B1029820F042
:10382000005000F10050029005E0029820F0805016
:1038300000F180500290029820F0806000F18060DA
:103840000290029820F0004000F10040029022789F
:1038500005F1540050F82200029901603046FEBD87
:10386000FEB50246002000240025029500954D7803
:10387000012D52D193691D6802951D6900954D690E
:1038800055B9009D25F07F050095009D25F4C015D4
:1038900005F50025009516E08E684D69B54207D9FB
:1038A0008D684D610E7A009D66F30605009504E073
:1038B0000E7D009D66F306050095009D25F4C0155C
:1038C00005F500250095009D1D61D578012D06D1D7
:1038D0000F7802F1180555F827500E696E61029DA8
:1038E00025F0806505F180650295029D25F0004573
:1038F00005F100450295029D1D60D578002D59D136
:103900004D69002D56D00E780125B5402C43156920
:103910006D6B2543166975634CE00E7802F1540512
:1039200055F826502D6802950E7802F1540555F889
:1039300026502D6900954D695DB90E7A009D66F39C
:1039400006050095009D25F4C01505F50025009598
:103950000CE08D684D610E7A009D66F306050095BA
:10396000009D25F4C01505F5002500950F7802F19E
:10397000540555F82750009E2E61D578012D06D1AB
:103980000F7802F1540555F827500E696E61029DBB
:1039900025F0806505F180650295029D25F00045C2
:1039A00005F1004502950F7802F1540555F82750AE
:1039B000029E2E60FEBD38B503460A460020002454
:1039C00000945478012C18D1157803F1180454F898
:1039D00025100C680094009CE40F2CB1009C24F08E
:1039E000804404F180440094009C24F4001404F505
:1039F00000140094009C0C600EE0157803F1540450
:103A000054F825100C680094009C24F4001404F56C
:103A100000140094009C0C6038BD38B503460020AB
:103A2000002400944C78012C05D10D7803F1180482
:103A300054F8252004E00D7803F1540454F82520AF
:103A400014680094009C24F400140094CC78032C97
:103A500002D0CC78022C05D1009C24F0805404F1D3
:103A600080540094009C146038BD01460869826946
:103A70000869C0690240100C7047024602F1540305
:103A800053F82130986813695B6918407047014604
:103A9000086982690869C069024090B270470EB532
:103AA00000210191019921F04041A1F18041019152
:103AB000019921F4C01101F500210191019921F032
:103AC0007F0118310191019A416D0A61C178012984
:103AD00015D10021009100F2CC51426D5161416D30
:103AE00009680091009921F0004101F10041009125
:103AF0004FF080210091009A416D0A6000BF0EBD19
:103B00003EB504464FF48C70005968B32069806854
:103B10000190019800F0010030B3A07A70B1D4F8A0
:103B20000C010090009820F002000090009820F016
:103B3000010000900099D4F80C010160002002906F
:103B4000029820F00100401C029020694068029910
:103B50000843216948600520FDF788FE2069406818
:103B600002998843216948603EBD0CB5817AB1B1A4
:103B7000016989680191019901F0010171B1D0F8E1
:103B80000C110091009921F002010091009921F09F
:103B900001010091009AD0F80C110A6000BF0CBD21
:103BA00070B5044601214FF48970015500250BE0E2
:103BB000FF2104F1180050F82500816004F1540041
:103BC00050F8250081606D1C6078A842F0D8002173
:103BD00020690161206941612069C161491E206934
:103BE00081612046FFF7A3FA10212046FFF777FAFC
:103BF00070BD38B503460020002400944C78012C99
:103C000014D10D7803F1180454F825201468009499
:103C1000009CC4F340540CB110201EE0009CC4F37F
:103C200040440CB1202018E0302016E00D7803F15C
:103C3000540454F8252014680094009CC4F34054A4
:103C400014B14FF4805008E0009CC4F3404414B118
:103C50004FF4005001E04FF4405038BDF8B507462E
:103C60000D46144600200090687801283CD1297840
:103C700007F1180050F8216030680090102C04D132
:103C800029463846FFF797FEF8BD202C06D100984C
:103C900020F0006000F10060009068E0302C1DD141
:103CA0000098C0F3405030B1002068712946384672
:103CB000FFF7B3FEE8E7009820F0806000F1806035
:103CC0000090009820F4004000F50040009000981B
:103CD00020F0004000F10040009048E0ECBB00986C
:103CE00020F40040009042E0297807F1540050F899
:103CF000216030680090B4F5805F06D1009820F410
:103D0000001000F50010009031E0B4F5005F06D11E
:103D1000009820F0006000F10060009027E0B4F50A
:103D2000405F1FD10098C0F3405030B1002068714F
:103D300029463846FFF771FEA6E7009820F080601C
:103D400000F180600090009820F4004000F50040F1
:103D50000090009820F0004000E008E000F10040F2
:103D6000009004E01CB9009820F4004000900098F6
:103D7000306000BF88E72DE9F04106460F4639461E
:103D80003046FFF791F801214FF4897081550021E9
:103D9000801C8155002511E005EB850106F58E702C
:103DA00000EBC104012060702570E5800020E07008
:103DB0004020A0600020E06060616D1C7078A84227
:103DC000EAD8002510E005EB850106F55D7000EBF3
:103DD000C104002060702570E580E0704020A06084
:103DE0000020E06060616D1C7078A842EBD830461E
:103DF000FFF764F93046FFF7BDF800213046FFF7C2
:103E0000B9F93046FFF762FA3046FFF746F9BDE8E8
:103E1000F0812DE9F04106460D4690461F4605F01B
:103E20008000802808D105F07F0000EB800106F5B6
:103E30008E7000EBC10407E005F07F0000EB80010D
:103E400006F55D7000EBC10405F07F00207005F001
:103E50008000C0096070C4F80880E770607808B11D
:103E60002078E080022F01D10020207121463046C9
:103E7000FFF780FB0020BDE8F08170B506460C46D8
:103E800004F08000802808D104F07F0000EB80015E
:103E900006F58E7000EBC10507E004F07F0000EB33
:103EA000800106F55D7000EBC10504F07F0028700D
:103EB00004F08000C009687029463046FFF7A6FB71
:103EC000002070BD2DE9F04105460E461746984684
:103ED00006F07F0000EB800105F55D7000EBC1048A
:103EE000E760C4F814800020A061607006F07F00D5
:103EF0002070E878012800D12761207820B9214678
:103F00002846FFF7ADFC03E021462846FFF7ADFB4E
:103F10000020BDE8F0812DE9F04107460D46164628
:103F2000984605F07F0000EB800107F58E7000EBEE
:103F3000C1040120607005F07F002070E6602661FA
:103F40000020A061C4F81480207820B921463846AA
:103F5000FFF786FC03E021463846FFF786FB00208A
:103F6000BDE8F08170B506460C4604F0800080285C
:103F700008D104F07F0000EB800106F58E7000EBA5
:103F8000C10505E004EB840106F55D7000EBC10599
:103F90000120A87004F07F002870C4F3C01068707E
:103FA00029463046FFF707FD002070BD70B5064674
:103FB0000C4604F08000802808D104F07F0000EB5C
:103FC000800106F58E7000EBC10505E004EB84016D
:103FD00006F55D7000EBC1050020A87004F07F00BD
:103FE0002870C4F3C010687029463046FFF715FDED
:103FF000002070BD70B505460C4604F08000802896
:1040000005D104F07F012846FFF769F802E0284651
:10401000FFF78DF8002070BD08B500220092009ACD
:1040200061F30A12009202691268009B1A43036945
:104030001A6008BD38B504462069406800900098B1
:1040400020F0020000900099206941600320FDF7F4
:104050000DFC38BD38B504462069406800900098D2
:1040600020F00200801C009000992069416003202C
:10407000FDF7FCFB38BD2DE9F04105460C46002755
:1040800004F08000802808D104F07F0000EB80015C
:1040900005F58E7000EBC10605E004EB840105F523
:1040A0005D7000EBC10631462846FFF7A2FD0746CA
:1040B0003846BDE8F0812DE9F04105460C4617462B
:1040C00004F08000802808D104F07F0000EB80011C
:1040D00005F58E7000EBC10605E004EB840105F5E3
:1040E0005D7000EBC1063A4631462846FFF7B6FD43
:1040F000BDE8F08138B5044600200090FE48006815
:10410000016A20468847009820F4001000F500104E
:1041100000900098E1684861012038BD38B5044638
:1041200000200090F4480068C16920468847009844
:1041300020F4801000F5801000900098E16848613C
:10414000012038BD1CB504462046FFF7DEF9E068C3
:10415000C06800902046FFF7BEF903280BD100206D
:10416000A0704FF40070A080009820F4705000F50B
:104170001050009009E00120A0704020A08000981D
:1041800020F4705000F5A05000900098E168C860DD
:1041900000200190019820F4005000F5005001909B
:1041A0000198E168486101201CBD30B587B0044624
:1041B00000200290069005900490039001900298D0
:1041C00020F00100401C0290206940680299884359
:1041D0002169486000212046FEF781FF00250BE0A1
:1041E000FF2104F1180050F82500816004F154000B
:1041F00050F8250081606D1C6078A842F0D84FF01F
:10420000FF312069816106986FF30F00401C069012
:10421000069880B200F58030069006992069C16149
:10422000059820F0080008300590059820F001005E
:10423000401C0590059820F00200801C059005990F
:1042400020694161049820F00100401C049004980A
:1042500020F0080008300490049820F00200801C30
:104260000490049920690161206900680390039813
:1042700020F4FE6003900399206901602046FFF757
:104280000EFC00200190019820F4805000F5805031
:1042900001900198E16848619748006801692046EB
:1042A0008847012007B030BD7CB50446002001904E
:1042B000019820F0100010300190E06880690199A9
:1042C0008843E1688861E068006A0090009800F027
:1042D0000F0000EB800104F55D7000EBC105009854
:1042E000C0F3434007282DD2DFE800F02C04051D61
:1042F0001E2C1F0027E00098C0F30A1090B1009810
:10430000C0F30A122046E968FEF7BAFDE868009992
:10431000C1F30A110844E860A8690099C1F30A11C1
:104320000844A8610FE00EE00DE0082204F2CC5131
:104330002046FEF7A5FDA8690099C1F30A110844BB
:10434000A86100E000BF00BFE068806901990843F0
:10435000E168886101207CBD38B504466648006884
:10436000C1682046884700200090009820F008008F
:10437000083000900098E1684861012038BD1FB501
:104380000446002000904FF48970005D00905A4868
:1043900000684169204688472069806801900020B4
:1043A0000390039820F4006000F5006003900398E8
:1043B000E1684861A07A70B3019800F0010050B341
:1043C00040F21510005D012825D19DF8000003285A
:1043D00021D100200290029820F00100401C0290A0
:1043E000D4F80C01006802990843D4F80C11086055
:1043F000029820F00200801C0290D4F80C010068A2
:1044000002990843D4F80C1108603C48006840F059
:1044100006003A490860012004B010BD3EB50446CC
:10442000A07A70B1D4F80C010090009820F002003E
:104430000090009820F0010000900099D4F80C0141
:10444000016000200190019820F00100401C0190C3
:1044500020694068019988432169486026480068BE
:1044600081692046884700200290029820F0004091
:1044700000F1004002900298E168486101203EBDD1
:104480002DE9F84307460E4600250020009006EB74
:10449000860107F58E7000EBC104D4E90501451AC9
:1044A000A068A84200D2A568E81C4FEA900807F16E
:1044B000180050F82600806900901BE0D4E905013F
:1044C000451AA068A84200D2A568E81C4FEA9008E7
:1044D000ABB2F2B23846E168FEF7B2FCE0682844BD
:1044E000E060A0692844A06107F1180050F8260098
:1044F00080690090009803E0D000002010ED00E0FB
:1045000080B2404506D9D4E90510884202D26069DC
:104510000028D3D10120BDE8F88330B502461569E3
:104520002B6915696C6B24FA01F505F0010543EA66
:10453000C51302F1180555F82150AD6805EA0300CE
:1045400030BDF8B505460024002000902846FFF74E
:104550009EFA064690E006F0010000287ED0E1B207
:104560002846FFF7DAFF0090009800F0010030B312
:10457000012000FA04F72869406BB84329694863B1
:1045800000200090009820F00100401C009005F1F0
:10459000180050F8240000998160E1B2B04800682A
:1045A000426828469047E878012808D13CB940F293
:1045B0001110405D042802D12846FFF770FA0098D8
:1045C000C0F3C00060B100200090009820F0080007
:1045D0000830009005F1180050F82400009981601F
:1045E0000098C0F3001060B100200090009820F007
:1045F00010001030009005F1180050F824000099C8
:1046000081600098C0F3801060B100200090009895
:1046100020F040004030009005F1180050F82400D0
:10462000009981600098C0F3400060B100200090C4
:10463000009820F00200801C009005F1180050F84E
:104640002400009981600098C0F3C01030B1214669
:104650002846FFF715FF0020009000E00AE00098D0
:1046600020F080008030009005F1180050F8240000
:1046700000998160641C7608002E7FF46CAF0120E5
:10468000F8BD7CB504460025002001902046FFF7C8
:10469000ECF906466FE006F00100002869D0E9B2A7
:1046A0002046FFF7EAF90190019800F00100C8B335
:1046B00000200190019820F00100401C019004F1BD
:1046C000540050F8250001998160E078012817D145
:1046D00004F1540050F825000069009005EB8501B5
:1046E00004F55D7000EBC10080680099C1F3120110
:1046F000411A05EB850204F55D7000EBC200816193
:10470000E9B257480068026820469047E0780128DF
:1047100008D13DB940F21110005D052802D12046B4
:10472000FFF7BDF90198C0F3400060B1002001908F
:10473000019820F00200801C019004F1540050F810
:104740002500019981600198C0F3C00088B14448F8
:10475000006881682046884700200190019820F079
:1047600008000830019004F1540050F82500019928
:1047700081606D1C7608002E8DD101207CBD7CB53A
:10478000054600242846FEF727FD002865D0284668
:10479000FEF737FD0190019808B900207CBD019813
:1047A000C0F3C04018B12846FFF76BFF04430198DF
:1047B000C0F3804018B12846FFF7C3FE04430198B8
:1047C000C0F3400050B100200090009820F002009B
:1047D000801C00900098E968486100BF0198C00FF4
:1047E00018B12846FFF71AFE04430198C0F3C02011
:1047F00018B12846FFF7C3FD04430198C0F3C00079
:1048000018B12846FFF7A8FD04430198C0F3001033
:1048100018B12846FFF748FD04430198C0F3003063
:1048200018B12846FFF7C1FC04430198C0F340309B
:1048300018B12846FFF786FC04430198C0F30050E6
:1048400018B12846FFF76AFC04430198C0F34050B2
:1048500018B12846FFF74EFC044320469EE70000AF
:10486000D00000201CB501212020FCF735FA4FF4C0
:10487000C060009001208DF8040000208DF8060033
:1048800003208DF8050001208DF8070069460448D3
:10489000FBF764FF4FF4C0610148FBF7DBFF1CBD71
:1048A00000140240704700000FB4044910B503AA79
:1048B000029800F07DF810BC5DF814FB2800002081
:1048C0002DE9F0410E460446002020622046E168B2
:1048D000884730B3252805D0D4E901219047206AC4
:1048E000401CF2E7E168204600278847050018D001
:1048F000A5F14100192802D820354FF4006732464F
:10490000294620462760FBF799FC40B1012804D0D6
:10491000F61D26F007060836D8E7361DD6E72846E6
:10492000DAE7206ABDE8F08170B50C460546012A39
:1049300005D02878800600D5EA69002302E001232B
:1049400005E05B1C934202D2E05C0028F9D1A86923
:10495000E618C01AA861286A184428622846AFF3EE
:10496000008004E0D5E9012114F8010B9047B4421E
:10497000F8D32846AFF3008070BD7047704770478A
:10498000704710B5436913B1AFF3008001E0FFF742
:10499000CBFF012010BD127800F124010A70002223
:1049A0004A700122EDE711684FF0FF32E9E700009D
:1049B000074B70B50D467B4400F011F804462846BD
:1049C00000F020F810B14FF0FF3070BD204670BDF0
:1049D00023CBFFFF01694A1C02610878704700B5CC
:1049E0008FB0CDE901310021059105497944CDE928
:1049F000031011466846FFF763FF0FB000BD0000CB
:104A0000E5FFFFFF007B00F080007047754600F077
:104A10002BF8AE4605006946534620F00700854650
:104A200018B020B5FBF792FDBDE820404FF000061E
:104A30004FF000074FF000084FF0000B21F0070186
:104A4000AC46ACE8C009ACE8C009ACE8C009ACE8C9
:104A5000C0098D46704710B50446AFF3008020466C
:104A6000BDE81040FBF7FEBB00487047FC1100207A
:104A70004FF04070E1EE100A704700009C4A0008B9
:104A8000000000207C010000C4010008884B0008E1
:104A90007C010020E41600002002000811847A0343
:104AA0000A680901020304060708090CA91081130A
:104AB0008D181B0897041AC3041AA1041AD7041AE4
:104AC000F904131B19140812013202164083044022
:104AD000571A023E4C010A061212011E0403090471
:104AE000E1241AE5041AE904132D1A1B0863044192
:104AF0001AC3081ACD041AF5041AFF0413091B1B64
:104B00000813041A1D044113D91C14087D1D1B0829
:104B1000850813BD1E1B084D041A9D041A7F041B33
:104B20000B1F2819048122A4022C2072FF13E926EE
:104B3000140833271B085B0441132F281B08550456
:104B400013932A8C08512D601A750C1C090243DF3F
:104B50001125C03209041B01020B13052416100194
:104B60000524011009010424020205240617010787
:104B70000582030815FF09040133020A2E07050107
:084B80000240072A81075100E1
:040000050800018965
:00000001FF
